{
	"contracts/CalculateFacet.sol": {
		"CalculateFacet": {
			"abi": [
				{
					"anonymous": false,
					"inputs": [
						{
							"indexed": false,
							"internalType": "uint256",
							"name": "addedValue",
							"type": "uint256"
						},
						{
							"indexed": false,
							"internalType": "uint256",
							"name": "newValue",
							"type": "uint256"
						}
					],
					"name": "NumberAdded",
					"type": "event"
				},
				{
					"anonymous": false,
					"inputs": [
						{
							"indexed": false,
							"internalType": "uint256",
							"name": "oldValue",
							"type": "uint256"
						},
						{
							"indexed": false,
							"internalType": "uint256",
							"name": "newValue",
							"type": "uint256"
						}
					],
					"name": "NumberSet",
					"type": "event"
				},
				{
					"inputs": [],
					"name": "getNumber",
					"outputs": [
						{
							"internalType": "uint256",
							"name": "",
							"type": "uint256"
						}
					],
					"stateMutability": "view",
					"type": "function"
				},
				{
					"inputs": [
						{
							"internalType": "uint256",
							"name": "_number",
							"type": "uint256"
						}
					],
					"name": "incrementNumber",
					"outputs": [],
					"stateMutability": "nonpayable",
					"type": "function"
				},
				{
					"inputs": [
						{
							"internalType": "uint256",
							"name": "_number",
							"type": "uint256"
						}
					],
					"name": "setNumber",
					"outputs": [],
					"stateMutability": "nonpayable",
					"type": "function"
				}
			],
			"devdoc": {
				"kind": "dev",
				"methods": {},
				"version": 1
			},
			"evm": {
				"assembly": "    /* \"contracts/CalculateFacet.sol\":58:994  contract CalculateFacet {... */\n  mstore(0x40, 0x80)\n  callvalue\n  dup1\n  iszero\n  tag_1\n  jumpi\n  0x00\n  dup1\n  revert\ntag_1:\n  pop\n  dataSize(sub_0)\n  dup1\n  dataOffset(sub_0)\n  0x00\n  codecopy\n  0x00\n  return\nstop\n\nsub_0: assembly {\n        /* \"contracts/CalculateFacet.sol\":58:994  contract CalculateFacet {... */\n      mstore(0x40, 0x80)\n      callvalue\n      dup1\n      iszero\n      tag_1\n      jumpi\n      0x00\n      dup1\n      revert\n    tag_1:\n      pop\n      jumpi(tag_2, lt(calldatasize, 0x04))\n      shr(0xe0, calldataload(0x00))\n      dup1\n      0x3fb5c1cb\n      eq\n      tag_3\n      jumpi\n      dup1\n      0x8151b2f5\n      eq\n      tag_4\n      jumpi\n      dup1\n      0xf2c9ecd8\n      eq\n      tag_5\n      jumpi\n    tag_2:\n      0x00\n      dup1\n      revert\n        /* \"contracts/CalculateFacet.sol\":506:710  function setNumber(uint256 _number) external {... */\n    tag_3:\n      tag_6\n      0x04\n      dup1\n      calldatasize\n      sub\n      dup2\n      add\n      swap1\n      tag_7\n      swap2\n      swap1\n      tag_8\n      jump\t// in\n    tag_7:\n      tag_9\n      jump\t// in\n    tag_6:\n      stop\n        /* \"contracts/CalculateFacet.sol\":716:890  function incrementNumber(uint256 _number) external {... */\n    tag_4:\n      tag_10\n      0x04\n      dup1\n      calldatasize\n      sub\n      dup2\n      add\n      swap1\n      tag_11\n      swap2\n      swap1\n      tag_8\n      jump\t// in\n    tag_11:\n      tag_12\n      jump\t// in\n    tag_10:\n      stop\n        /* \"contracts/CalculateFacet.sol\":896:992  function getNumber() external view returns (uint256) {... */\n    tag_5:\n      tag_13\n      tag_14\n      jump\t// in\n    tag_13:\n      mload(0x40)\n      tag_15\n      swap2\n      swap1\n      tag_16\n      jump\t// in\n    tag_15:\n      mload(0x40)\n      dup1\n      swap2\n      sub\n      swap1\n      return\n        /* \"contracts/CalculateFacet.sol\":506:710  function setNumber(uint256 _number) external {... */\n    tag_9:\n        /* \"contracts/CalculateFacet.sol\":561:578  Storage storage s */\n      0x00\n        /* \"contracts/CalculateFacet.sol\":581:593  getStorage() */\n      tag_18\n        /* \"contracts/CalculateFacet.sol\":581:591  getStorage */\n      tag_19\n        /* \"contracts/CalculateFacet.sol\":581:593  getStorage() */\n      jump\t// in\n    tag_18:\n        /* \"contracts/CalculateFacet.sol\":561:593  Storage storage s = getStorage() */\n      swap1\n      pop\n        /* \"contracts/CalculateFacet.sol\":603:620  uint256 oldNumber */\n      0x00\n        /* \"contracts/CalculateFacet.sol\":623:624  s */\n      dup2\n        /* \"contracts/CalculateFacet.sol\":623:631  s.number */\n      0x00\n      add\n      sload\n        /* \"contracts/CalculateFacet.sol\":603:631  uint256 oldNumber = s.number */\n      swap1\n      pop\n        /* \"contracts/CalculateFacet.sol\":652:659  _number */\n      dup3\n        /* \"contracts/CalculateFacet.sol\":641:642  s */\n      dup3\n        /* \"contracts/CalculateFacet.sol\":641:649  s.number */\n      0x00\n      add\n        /* \"contracts/CalculateFacet.sol\":641:659  s.number = _number */\n      dup2\n      swap1\n      sstore\n      pop\n        /* \"contracts/CalculateFacet.sol\":674:703  NumberSet(oldNumber, _number) */\n      0x9b99fe1e164b2f59c23e957801d298251d28b6c108a9e5348c4128956db0483b\n        /* \"contracts/CalculateFacet.sol\":684:693  oldNumber */\n      dup2\n        /* \"contracts/CalculateFacet.sol\":695:702  _number */\n      dup5\n        /* \"contracts/CalculateFacet.sol\":674:703  NumberSet(oldNumber, _number) */\n      mload(0x40)\n      tag_20\n      swap3\n      swap2\n      swap1\n      tag_21\n      jump\t// in\n    tag_20:\n      mload(0x40)\n      dup1\n      swap2\n      sub\n      swap1\n      log1\n        /* \"contracts/CalculateFacet.sol\":551:710  {... */\n      pop\n      pop\n        /* \"contracts/CalculateFacet.sol\":506:710  function setNumber(uint256 _number) external {... */\n      pop\n      jump\t// out\n        /* \"contracts/CalculateFacet.sol\":716:890  function incrementNumber(uint256 _number) external {... */\n    tag_12:\n        /* \"contracts/CalculateFacet.sol\":777:794  Storage storage s */\n      0x00\n        /* \"contracts/CalculateFacet.sol\":797:809  getStorage() */\n      tag_23\n        /* \"contracts/CalculateFacet.sol\":797:807  getStorage */\n      tag_19\n        /* \"contracts/CalculateFacet.sol\":797:809  getStorage() */\n      jump\t// in\n    tag_23:\n        /* \"contracts/CalculateFacet.sol\":777:809  Storage storage s = getStorage() */\n      swap1\n      pop\n        /* \"contracts/CalculateFacet.sol\":831:838  _number */\n      dup2\n        /* \"contracts/CalculateFacet.sol\":819:820  s */\n      dup2\n        /* \"contracts/CalculateFacet.sol\":819:827  s.number */\n      0x00\n      add\n      0x00\n        /* \"contracts/CalculateFacet.sol\":819:838  s.number += _number */\n      dup3\n      dup3\n      sload\n      tag_24\n      swap2\n      swap1\n      tag_25\n      jump\t// in\n    tag_24:\n      swap3\n      pop\n      pop\n      dup2\n      swap1\n      sstore\n      pop\n        /* \"contracts/CalculateFacet.sol\":853:883  NumberAdded(_number, s.number) */\n      0x3953975296e80fadd8df493e1e04b0cf0360a89eaf91ce2195c2a48feeb7579d\n        /* \"contracts/CalculateFacet.sol\":865:872  _number */\n      dup3\n        /* \"contracts/CalculateFacet.sol\":874:875  s */\n      dup3\n        /* \"contracts/CalculateFacet.sol\":874:882  s.number */\n      0x00\n      add\n      sload\n        /* \"contracts/CalculateFacet.sol\":853:883  NumberAdded(_number, s.number) */\n      mload(0x40)\n      tag_26\n      swap3\n      swap2\n      swap1\n      tag_21\n      jump\t// in\n    tag_26:\n      mload(0x40)\n      dup1\n      swap2\n      sub\n      swap1\n      log1\n        /* \"contracts/CalculateFacet.sol\":767:890  {... */\n      pop\n        /* \"contracts/CalculateFacet.sol\":716:890  function incrementNumber(uint256 _number) external {... */\n      pop\n      jump\t// out\n        /* \"contracts/CalculateFacet.sol\":896:992  function getNumber() external view returns (uint256) {... */\n    tag_14:\n        /* \"contracts/CalculateFacet.sol\":940:947  uint256 */\n      0x00\n        /* \"contracts/CalculateFacet.sol\":966:978  getStorage() */\n      tag_28\n        /* \"contracts/CalculateFacet.sol\":966:976  getStorage */\n      tag_19\n        /* \"contracts/CalculateFacet.sol\":966:978  getStorage() */\n      jump\t// in\n    tag_28:\n        /* \"contracts/CalculateFacet.sol\":966:985  getStorage().number */\n      0x00\n      add\n      sload\n        /* \"contracts/CalculateFacet.sol\":959:985  return getStorage().number */\n      swap1\n      pop\n        /* \"contracts/CalculateFacet.sol\":896:992  function getNumber() external view returns (uint256) {... */\n      swap1\n      jump\t// out\n        /* \"contracts/CalculateFacet.sol\":332:500  function getStorage() internal pure returns(Storage storage s) {... */\n    tag_19:\n        /* \"contracts/CalculateFacet.sol\":376:393  Storage storage s */\n      0x00\n        /* \"contracts/CalculateFacet.sol\":405:421  bytes32 position */\n      dup1\n        /* \"contracts/CalculateFacet.sol\":126:154  keccak256(\"calculate.facet\") */\n      0x9dac6cd3c0957f07c81622c6596ba6a5445b82e408443e33cc258bb54d964a39\n        /* \"contracts/CalculateFacet.sol\":405:433  bytes32 position = NAMESPACE */\n      swap1\n      pop\n        /* \"contracts/CalculateFacet.sol\":476:484  position */\n      dup1\n        /* \"contracts/CalculateFacet.sol\":466:484  s.slot := position */\n      swap2\n      pop\n        /* \"contracts/CalculateFacet.sol\":452:494  {... */\n      pop\n        /* \"contracts/CalculateFacet.sol\":332:500  function getStorage() internal pure returns(Storage storage s) {... */\n      swap1\n      jump\t// out\n        /* \"#utility.yul\":88:205   */\n    tag_31:\n        /* \"#utility.yul\":197:198   */\n      0x00\n        /* \"#utility.yul\":194:195   */\n      dup1\n        /* \"#utility.yul\":187:199   */\n      revert\n        /* \"#utility.yul\":334:411   */\n    tag_33:\n        /* \"#utility.yul\":371:378   */\n      0x00\n        /* \"#utility.yul\":400:405   */\n      dup2\n        /* \"#utility.yul\":389:405   */\n      swap1\n      pop\n        /* \"#utility.yul\":334:411   */\n      swap2\n      swap1\n      pop\n      jump\t// out\n        /* \"#utility.yul\":417:539   */\n    tag_34:\n        /* \"#utility.yul\":490:514   */\n      tag_44\n        /* \"#utility.yul\":508:513   */\n      dup2\n        /* \"#utility.yul\":490:514   */\n      tag_33\n      jump\t// in\n    tag_44:\n        /* \"#utility.yul\":483:488   */\n      dup2\n        /* \"#utility.yul\":480:515   */\n      eq\n        /* \"#utility.yul\":470:533   */\n      tag_45\n      jumpi\n        /* \"#utility.yul\":529:530   */\n      0x00\n        /* \"#utility.yul\":526:527   */\n      dup1\n        /* \"#utility.yul\":519:531   */\n      revert\n        /* \"#utility.yul\":470:533   */\n    tag_45:\n        /* \"#utility.yul\":417:539   */\n      pop\n      jump\t// out\n        /* \"#utility.yul\":545:684   */\n    tag_35:\n        /* \"#utility.yul\":591:596   */\n      0x00\n        /* \"#utility.yul\":629:635   */\n      dup2\n        /* \"#utility.yul\":616:636   */\n      calldataload\n        /* \"#utility.yul\":607:636   */\n      swap1\n      pop\n        /* \"#utility.yul\":645:678   */\n      tag_47\n        /* \"#utility.yul\":672:677   */\n      dup2\n        /* \"#utility.yul\":645:678   */\n      tag_34\n      jump\t// in\n    tag_47:\n        /* \"#utility.yul\":545:684   */\n      swap3\n      swap2\n      pop\n      pop\n      jump\t// out\n        /* \"#utility.yul\":690:1019   */\n    tag_8:\n        /* \"#utility.yul\":749:755   */\n      0x00\n        /* \"#utility.yul\":798:800   */\n      0x20\n        /* \"#utility.yul\":786:795   */\n      dup3\n        /* \"#utility.yul\":777:784   */\n      dup5\n        /* \"#utility.yul\":773:796   */\n      sub\n        /* \"#utility.yul\":769:801   */\n      slt\n        /* \"#utility.yul\":766:885   */\n      iszero\n      tag_49\n      jumpi\n        /* \"#utility.yul\":804:883   */\n      tag_50\n      tag_31\n      jump\t// in\n    tag_50:\n        /* \"#utility.yul\":766:885   */\n    tag_49:\n        /* \"#utility.yul\":924:925   */\n      0x00\n        /* \"#utility.yul\":949:1002   */\n      tag_51\n        /* \"#utility.yul\":994:1001   */\n      dup5\n        /* \"#utility.yul\":985:991   */\n      dup3\n        /* \"#utility.yul\":974:983   */\n      dup6\n        /* \"#utility.yul\":970:992   */\n      add\n        /* \"#utility.yul\":949:1002   */\n      tag_35\n      jump\t// in\n    tag_51:\n        /* \"#utility.yul\":939:1002   */\n      swap2\n      pop\n        /* \"#utility.yul\":895:1012   */\n      pop\n        /* \"#utility.yul\":690:1019   */\n      swap3\n      swap2\n      pop\n      pop\n      jump\t// out\n        /* \"#utility.yul\":1025:1143   */\n    tag_36:\n        /* \"#utility.yul\":1112:1136   */\n      tag_53\n        /* \"#utility.yul\":1130:1135   */\n      dup2\n        /* \"#utility.yul\":1112:1136   */\n      tag_33\n      jump\t// in\n    tag_53:\n        /* \"#utility.yul\":1107:1110   */\n      dup3\n        /* \"#utility.yul\":1100:1137   */\n      mstore\n        /* \"#utility.yul\":1025:1143   */\n      pop\n      pop\n      jump\t// out\n        /* \"#utility.yul\":1149:1371   */\n    tag_16:\n        /* \"#utility.yul\":1242:1246   */\n      0x00\n        /* \"#utility.yul\":1280:1282   */\n      0x20\n        /* \"#utility.yul\":1269:1278   */\n      dup3\n        /* \"#utility.yul\":1265:1283   */\n      add\n        /* \"#utility.yul\":1257:1283   */\n      swap1\n      pop\n        /* \"#utility.yul\":1293:1364   */\n      tag_55\n        /* \"#utility.yul\":1361:1362   */\n      0x00\n        /* \"#utility.yul\":1350:1359   */\n      dup4\n        /* \"#utility.yul\":1346:1363   */\n      add\n        /* \"#utility.yul\":1337:1343   */\n      dup5\n        /* \"#utility.yul\":1293:1364   */\n      tag_36\n      jump\t// in\n    tag_55:\n        /* \"#utility.yul\":1149:1371   */\n      swap3\n      swap2\n      pop\n      pop\n      jump\t// out\n        /* \"#utility.yul\":1377:1709   */\n    tag_21:\n        /* \"#utility.yul\":1498:1502   */\n      0x00\n        /* \"#utility.yul\":1536:1538   */\n      0x40\n        /* \"#utility.yul\":1525:1534   */\n      dup3\n        /* \"#utility.yul\":1521:1539   */\n      add\n        /* \"#utility.yul\":1513:1539   */\n      swap1\n      pop\n        /* \"#utility.yul\":1549:1620   */\n      tag_57\n        /* \"#utility.yul\":1617:1618   */\n      0x00\n        /* \"#utility.yul\":1606:1615   */\n      dup4\n        /* \"#utility.yul\":1602:1619   */\n      add\n        /* \"#utility.yul\":1593:1599   */\n      dup6\n        /* \"#utility.yul\":1549:1620   */\n      tag_36\n      jump\t// in\n    tag_57:\n        /* \"#utility.yul\":1630:1702   */\n      tag_58\n        /* \"#utility.yul\":1698:1700   */\n      0x20\n        /* \"#utility.yul\":1687:1696   */\n      dup4\n        /* \"#utility.yul\":1683:1701   */\n      add\n        /* \"#utility.yul\":1674:1680   */\n      dup5\n        /* \"#utility.yul\":1630:1702   */\n      tag_36\n      jump\t// in\n    tag_58:\n        /* \"#utility.yul\":1377:1709   */\n      swap4\n      swap3\n      pop\n      pop\n      pop\n      jump\t// out\n        /* \"#utility.yul\":1715:1895   */\n    tag_37:\n        /* \"#utility.yul\":1763:1840   */\n      0x4e487b7100000000000000000000000000000000000000000000000000000000\n        /* \"#utility.yul\":1760:1761   */\n      0x00\n        /* \"#utility.yul\":1753:1841   */\n      mstore\n        /* \"#utility.yul\":1860:1864   */\n      0x11\n        /* \"#utility.yul\":1857:1858   */\n      0x04\n        /* \"#utility.yul\":1850:1865   */\n      mstore\n        /* \"#utility.yul\":1884:1888   */\n      0x24\n        /* \"#utility.yul\":1881:1882   */\n      0x00\n        /* \"#utility.yul\":1874:1889   */\n      revert\n        /* \"#utility.yul\":1901:2092   */\n    tag_25:\n        /* \"#utility.yul\":1941:1944   */\n      0x00\n        /* \"#utility.yul\":1960:1980   */\n      tag_61\n        /* \"#utility.yul\":1978:1979   */\n      dup3\n        /* \"#utility.yul\":1960:1980   */\n      tag_33\n      jump\t// in\n    tag_61:\n        /* \"#utility.yul\":1955:1980   */\n      swap2\n      pop\n        /* \"#utility.yul\":1994:2014   */\n      tag_62\n        /* \"#utility.yul\":2012:2013   */\n      dup4\n        /* \"#utility.yul\":1994:2014   */\n      tag_33\n      jump\t// in\n    tag_62:\n        /* \"#utility.yul\":1989:2014   */\n      swap3\n      pop\n        /* \"#utility.yul\":2037:2038   */\n      dup3\n        /* \"#utility.yul\":2034:2035   */\n      dup3\n        /* \"#utility.yul\":2030:2039   */\n      add\n        /* \"#utility.yul\":2023:2039   */\n      swap1\n      pop\n        /* \"#utility.yul\":2058:2061   */\n      dup1\n        /* \"#utility.yul\":2055:2056   */\n      dup3\n        /* \"#utility.yul\":2052:2062   */\n      gt\n        /* \"#utility.yul\":2049:2085   */\n      iszero\n      tag_63\n      jumpi\n        /* \"#utility.yul\":2065:2083   */\n      tag_64\n      tag_37\n      jump\t// in\n    tag_64:\n        /* \"#utility.yul\":2049:2085   */\n    tag_63:\n        /* \"#utility.yul\":1901:2092   */\n      swap3\n      swap2\n      pop\n      pop\n      jump\t// out\n\n    auxdata: 0xa2646970667358221220f135a666c2c1984390c29439e73e4ec3fe634fb899389a9c7db90d2b9e08adf464736f6c63430008120033\n}\n",
				"bytecode": {
					"linkReferences": {},
					"object": "608060405234801561001057600080fd5b506102f4806100206000396000f3fe608060405234801561001057600080fd5b50600436106100415760003560e01c80633fb5c1cb146100465780638151b2f514610062578063f2c9ecd81461007e575b600080fd5b610060600480360381019061005b91906101db565b61009c565b005b61007c600480360381019061007791906101db565b6100f8565b005b610086610160565b6040516100939190610217565b60405180910390f35b60006100a6610173565b90506000816000015490508282600001819055507f9b99fe1e164b2f59c23e957801d298251d28b6c108a9e5348c4128956db0483b81846040516100eb929190610232565b60405180910390a1505050565b6000610102610173565b905081816000016000828254610118919061028a565b925050819055507f3953975296e80fadd8df493e1e04b0cf0360a89eaf91ce2195c2a48feeb7579d828260000154604051610154929190610232565b60405180910390a15050565b600061016a610173565b60000154905090565b6000807f9dac6cd3c0957f07c81622c6596ba6a5445b82e408443e33cc258bb54d964a3990508091505090565b600080fd5b6000819050919050565b6101b8816101a5565b81146101c357600080fd5b50565b6000813590506101d5816101af565b92915050565b6000602082840312156101f1576101f06101a0565b5b60006101ff848285016101c6565b91505092915050565b610211816101a5565b82525050565b600060208201905061022c6000830184610208565b92915050565b60006040820190506102476000830185610208565b6102546020830184610208565b9392505050565b7f4e487b7100000000000000000000000000000000000000000000000000000000600052601160045260246000fd5b6000610295826101a5565b91506102a0836101a5565b92508282019050808211156102b8576102b761025b565b5b9291505056fea2646970667358221220f135a666c2c1984390c29439e73e4ec3fe634fb899389a9c7db90d2b9e08adf464736f6c63430008120033",
					"opcodes": "PUSH1 0x80 PUSH1 0x40 MSTORE CALLVALUE DUP1 ISZERO PUSH2 0x10 JUMPI PUSH1 0x0 DUP1 REVERT JUMPDEST POP PUSH2 0x2F4 DUP1 PUSH2 0x20 PUSH1 0x0 CODECOPY PUSH1 0x0 RETURN INVALID PUSH1 0x80 PUSH1 0x40 MSTORE CALLVALUE DUP1 ISZERO PUSH2 0x10 JUMPI PUSH1 0x0 DUP1 REVERT JUMPDEST POP PUSH1 0x4 CALLDATASIZE LT PUSH2 0x41 JUMPI PUSH1 0x0 CALLDATALOAD PUSH1 0xE0 SHR DUP1 PUSH4 0x3FB5C1CB EQ PUSH2 0x46 JUMPI DUP1 PUSH4 0x8151B2F5 EQ PUSH2 0x62 JUMPI DUP1 PUSH4 0xF2C9ECD8 EQ PUSH2 0x7E JUMPI JUMPDEST PUSH1 0x0 DUP1 REVERT JUMPDEST PUSH2 0x60 PUSH1 0x4 DUP1 CALLDATASIZE SUB DUP2 ADD SWAP1 PUSH2 0x5B SWAP2 SWAP1 PUSH2 0x1DB JUMP JUMPDEST PUSH2 0x9C JUMP JUMPDEST STOP JUMPDEST PUSH2 0x7C PUSH1 0x4 DUP1 CALLDATASIZE SUB DUP2 ADD SWAP1 PUSH2 0x77 SWAP2 SWAP1 PUSH2 0x1DB JUMP JUMPDEST PUSH2 0xF8 JUMP JUMPDEST STOP JUMPDEST PUSH2 0x86 PUSH2 0x160 JUMP JUMPDEST PUSH1 0x40 MLOAD PUSH2 0x93 SWAP2 SWAP1 PUSH2 0x217 JUMP JUMPDEST PUSH1 0x40 MLOAD DUP1 SWAP2 SUB SWAP1 RETURN JUMPDEST PUSH1 0x0 PUSH2 0xA6 PUSH2 0x173 JUMP JUMPDEST SWAP1 POP PUSH1 0x0 DUP2 PUSH1 0x0 ADD SLOAD SWAP1 POP DUP3 DUP3 PUSH1 0x0 ADD DUP2 SWAP1 SSTORE POP PUSH32 0x9B99FE1E164B2F59C23E957801D298251D28B6C108A9E5348C4128956DB0483B DUP2 DUP5 PUSH1 0x40 MLOAD PUSH2 0xEB SWAP3 SWAP2 SWAP1 PUSH2 0x232 JUMP JUMPDEST PUSH1 0x40 MLOAD DUP1 SWAP2 SUB SWAP1 LOG1 POP POP POP JUMP JUMPDEST PUSH1 0x0 PUSH2 0x102 PUSH2 0x173 JUMP JUMPDEST SWAP1 POP DUP2 DUP2 PUSH1 0x0 ADD PUSH1 0x0 DUP3 DUP3 SLOAD PUSH2 0x118 SWAP2 SWAP1 PUSH2 0x28A JUMP JUMPDEST SWAP3 POP POP DUP2 SWAP1 SSTORE POP PUSH32 0x3953975296E80FADD8DF493E1E04B0CF0360A89EAF91CE2195C2A48FEEB7579D DUP3 DUP3 PUSH1 0x0 ADD SLOAD PUSH1 0x40 MLOAD PUSH2 0x154 SWAP3 SWAP2 SWAP1 PUSH2 0x232 JUMP JUMPDEST PUSH1 0x40 MLOAD DUP1 SWAP2 SUB SWAP1 LOG1 POP POP JUMP JUMPDEST PUSH1 0x0 PUSH2 0x16A PUSH2 0x173 JUMP JUMPDEST PUSH1 0x0 ADD SLOAD SWAP1 POP SWAP1 JUMP JUMPDEST PUSH1 0x0 DUP1 PUSH32 0x9DAC6CD3C0957F07C81622C6596BA6A5445B82E408443E33CC258BB54D964A39 SWAP1 POP DUP1 SWAP2 POP POP SWAP1 JUMP JUMPDEST PUSH1 0x0 DUP1 REVERT JUMPDEST PUSH1 0x0 DUP2 SWAP1 POP SWAP2 SWAP1 POP JUMP JUMPDEST PUSH2 0x1B8 DUP2 PUSH2 0x1A5 JUMP JUMPDEST DUP2 EQ PUSH2 0x1C3 JUMPI PUSH1 0x0 DUP1 REVERT JUMPDEST POP JUMP JUMPDEST PUSH1 0x0 DUP2 CALLDATALOAD SWAP1 POP PUSH2 0x1D5 DUP2 PUSH2 0x1AF JUMP JUMPDEST SWAP3 SWAP2 POP POP JUMP JUMPDEST PUSH1 0x0 PUSH1 0x20 DUP3 DUP5 SUB SLT ISZERO PUSH2 0x1F1 JUMPI PUSH2 0x1F0 PUSH2 0x1A0 JUMP JUMPDEST JUMPDEST PUSH1 0x0 PUSH2 0x1FF DUP5 DUP3 DUP6 ADD PUSH2 0x1C6 JUMP JUMPDEST SWAP2 POP POP SWAP3 SWAP2 POP POP JUMP JUMPDEST PUSH2 0x211 DUP2 PUSH2 0x1A5 JUMP JUMPDEST DUP3 MSTORE POP POP JUMP JUMPDEST PUSH1 0x0 PUSH1 0x20 DUP3 ADD SWAP1 POP PUSH2 0x22C PUSH1 0x0 DUP4 ADD DUP5 PUSH2 0x208 JUMP JUMPDEST SWAP3 SWAP2 POP POP JUMP JUMPDEST PUSH1 0x0 PUSH1 0x40 DUP3 ADD SWAP1 POP PUSH2 0x247 PUSH1 0x0 DUP4 ADD DUP6 PUSH2 0x208 JUMP JUMPDEST PUSH2 0x254 PUSH1 0x20 DUP4 ADD DUP5 PUSH2 0x208 JUMP JUMPDEST SWAP4 SWAP3 POP POP POP JUMP JUMPDEST PUSH32 0x4E487B7100000000000000000000000000000000000000000000000000000000 PUSH1 0x0 MSTORE PUSH1 0x11 PUSH1 0x4 MSTORE PUSH1 0x24 PUSH1 0x0 REVERT JUMPDEST PUSH1 0x0 PUSH2 0x295 DUP3 PUSH2 0x1A5 JUMP JUMPDEST SWAP2 POP PUSH2 0x2A0 DUP4 PUSH2 0x1A5 JUMP JUMPDEST SWAP3 POP DUP3 DUP3 ADD SWAP1 POP DUP1 DUP3 GT ISZERO PUSH2 0x2B8 JUMPI PUSH2 0x2B7 PUSH2 0x25B JUMP JUMPDEST JUMPDEST SWAP3 SWAP2 POP POP JUMP INVALID LOG2 PUSH5 0x6970667358 0x22 SLT KECCAK256 CALL CALLDATALOAD 0xA6 PUSH7 0xC2C1984390C294 CODECOPY 0xE7 RETURNDATACOPY 0x4E 0xC3 INVALID PUSH4 0x4FB89938 SWAP11 SWAP13 PUSH30 0xB90D2B9E08ADF464736F6C63430008120033000000000000000000000000 "
				},
				"gasEstimates": {
					"creation": {
						"codeDepositCost": "151200",
						"executionCost": "196",
						"totalCost": "151396"
					},
					"external": {
						"getNumber()": "2513",
						"incrementNumber(uint256)": "infinite",
						"setNumber(uint256)": "infinite"
					},
					"internal": {
						"getStorage()": "36"
					}
				},
				"methodIdentifiers": {
					"getNumber()": "f2c9ecd8",
					"incrementNumber(uint256)": "8151b2f5",
					"setNumber(uint256)": "3fb5c1cb"
				}
			},
			"storageLayout": {
				"storage": [],
				"types": null
			},
			"userdoc": {
				"kind": "user",
				"methods": {},
				"version": 1
			}
		}
	}
}